S01800004763634170706C69636174696F6E31322E7372656328
S11300000C942A000C943F000C943F000C943F0085
S11300100C943F000C943F000C943F000C943F0060
S11300200C943F000C943F000C943F000C943F0050
S11300300C943F000C943F000C943F000C943F0040
S11300400C943F000C943F000C943F000C943F0030
S11300500C943F0011241FBECFE5D8E0DEBFCDBF16
S113006010E0A0E6B0E0E0EDF7E002C005900D92EC
S1130070A038B107D9F70E94AC020C94E6030C94A3
S11300800000683008F06FC0843008F06CC0813024
S113009001F130F08230B1F1833009F44CC008959D
S11300A0413059F42AB381E090E002C0880F991FCF
S11300B06A95E2F7822B8ABB08952AB381E090E027
S11300C002C0880F991F6A95E2F7809582238ABB44
S11300D00895413059F427B381E090E002C0880FBD
S11300E0991F6A95E2F7822B87BB089527B381E0B5
S11300F090E002C0880F991F6A95E2F780958223E9
S113010087BB0895413059F424B381E090E002C0E4
S1130110880F991F6A95E2F7822B84BB089524B354
S113012081E090E002C0880F991F6A95E2F78095FC
S1130130822384BB0895413059F421B381E090E0D7
S113014002C0880F991F6A95E2F7822B81BB08953C
S113015021B381E090E002C0880F991F6A95E2F70D
S11301608095822381BB0895683008F06FC0843085
S113017008F06CC0813001F130F08230B1F183308D
S113018009F44CC00895413059F42BB381E090E058
S113019002C0880F991F6A95E2F7822B8BBB0895E2
S11301A02BB381E090E002C0880F991F6A95E2F7B3
S11301B0809582238BBB0895413059F428B381E0A4
S11301C090E002C0880F991F6A95E2F7822B88BBE2
S11301D0089528B381E090E002C0880F991F6A95C2
S11301E0E2F78095822388BB0895413059F425B302
S11301F081E090E002C0880F991F6A95E2F7822B94
S113020085BB089525B381E090E002C0880F991F53
S11302106A95E2F78095822385BB0895413059F4AD
S113022022B381E090E002C0880F991F6A95E2F73B
S1130230822B82BB089522B381E090E002C0880F34
S1130240991F6A95E2F78095822382BB0895CF9324
S1130250C82F40E061E080E00E94B40089EF90E0A4
S11302600197F1F700C0000041E062E080E00E94E5
S1130270B40089EF90E00197F1F700C00000C4FBDF
S1130280442740F963E080E00E94B400C5FB4427A2
S113029040F964E080E00E94B400C6FB442740F9C2
S11302A065E080E00E94B4004C2F441F4427441FA3
S11302B066E080E00E94B40089EF90E00197F1F7D6
S11302C000C0000040E062E080E00E94B40089EFDA
S11302D090E00197F1F700C0000041E062E080E0A7
S11302E00E94B40089EF90E00197F1F700C000008C
S11302F04C2F417063E080E00E94B400C1FB4427AE
S113030040F964E080E00E94B400C2FB442740F955
S113031065E080E00E94B400C3FB442740F966E036
S113032080E00E94B40089EF90E00197F1F700C0EB
S1130330000040E062E080E00E94B40089EF90E0B9
S11303400197F1F700C00000CF91089541E061E00A
S113035080E00E94410041E062E080E00E944100B0
S113036087E893E10197F1F700C0000041E066E0FF
S113037080E00E94410041E065E080E00E9441008D
S113038041E064E080E00E94410041E063E080E0FD
S11303900E94410083E30E94270182E30E94270117
S11303A088E20E9427018CE00E94270181E00E94DC
S11303B027010895CF93C82F41E061E080E00E94B7
S11303C0B40089EF90E00197F1F700C0000041E02C
S11303D062E080E00E94B40089EF90E00197F1F7B9
S11303E000C00000C4FB442740F963E080E00E94A1
S11303F0B400C5FB442740F964E080E00E94B400E7
S1130400C6FB442740F965E080E00E94B4004C2F0D
S1130410441F4427441F66E080E00E94B40089EF33
S113042090E00197F1F700C0000040E062E080E056
S11304300E94B40089EF90E00197F1F700C000003A
S113044041E062E080E00E94B40089EF90E001970F
S1130450F1F700C000004C2F417063E080E00E947F
S1130460B400C1FB442740F964E080E00E94B4007A
S1130470C2FB442740F965E080E00E94B400C3FB5E
S1130480442740F966E080E00E94B40089EF90E0E0
S11304900197F1F700C0000040E062E080E00E94B4
S11304A0B40089EF90E00197F1F700C00000CF910C
S11304B00895CF93DF93EC0103C00E94DA012196E3
S11304C088818111FACFDF91CF910895813039F07D
S11304D058F0823031F0833031F060E005C0605C68
S11304E003C0605F01C0605B862F80680E942701A3
S11304F00895CF93DF93EA010E946602CE010E9421
S11305005902DF91CF910895CF93DF93CDB7DEB732
S113051060970FB6F894DEBF0FBECDBF4AE050E03F
S1130520BE016F5F7F4F0E94A603CE0101960E9419
S1130530590260960FB6F894DEBF0FBECDBFDF91AF
S1130540CF9108958AE085BB80EA82BB089585E057
S113055085BB80E582BB0895CF93DF93CDB7DEB72B
S113056027970FB6F894DEBF0FBECDBF8FEF84BBC5
S113057080EF81BB87B38E7F87BB0E94A60187E093
S1130580E0E6F0E0DE01119601900D928A95E1F724
S1130590CE0101960E940C030E948003F82E0E9453
S11305A08003082F0E948003182F87E690E00E94A2
S11305B059028F2D90E00E9484028EE20E94DA019B
S11305C0802F90E00E948402111112C00E94A202A6
S11305D02FEF83ED90E3215080409040E1F700C07D
S11305E000004BE650E060E081E00E947902D4CF45
S11305F0113091F60E94A7022FEF83ED90E3215072
S113060080409040E1F700C0000045E750E060E022
S113061081E00E947902C0CFFC0182E08BB98AB1EB
S113062088698AB980B5806880BD8181813021F470
S113063080B5806280BD05C0811103C080B5806330
S113064080BD8281813019F480B5886080BD80814D
S1130650853051F480B58D7F80BD80B58B7F80BDA2
S11306608AB18B7F8AB92FC0863051F480B58260FD
S113067080BD80B58B7F80BD8AB18B7F8AB923C052
S1130680873051F480B5846080BD80B58D7F80BD96
S11306908AB18B7F8AB917C0883051F480B58260E3
S11306A080BD80B5846080BD8AB18B7F8AB90BC060
S11306B0893049F480B5826080BD80B5846080BD96
S11306C08AB184608AB983819481A581B681880FB7
S11306D0991FAA1FBB1F880F991FAA1FBB1F9C012C
S11306E0AD01220F331F441F551F60E074E284EFF5
S11306F090E00E9484032150310930BD29B9089546
S11307005F9BFECF8CB10895A1E21A2EAA1BBB1BDE
S1130710FD010DC0AA1FBB1FEE1FFF1FA217B307C9
S1130720E407F50720F0A21BB30BE40BF50B661FDF
S1130730771F881F991F1A9469F7609570958095A3
S113074090959B01AC01BD01CF010895453251053F
S113075020F4423010F00C94B103FB011082CB0161
S11307600895BB274A3031F4992322F4BDE29095D1
S113077081959F4F0C94BD03BB27FB015527AA27E6
S1130780880F991FAA1FA41710F0A41B839550511A
S1130790B9F7A05DAA3308F0A95DA193009779F792
S11307A0B111B1931192CB010C94D603DC01FC017D
S11307B0672F71917723E1F7329704C07C916D9391
S11307C070836291AE17BF07C8F30895F894FFCF02
S11307D008010080250000563D200020466F7277F6
S11307E06172642000204261636B7761726420004F
S9030000FC
