:100000000C942A000C9434000C9434000C943400AA
:100010000C9434000C9434000C9434000C94340090
:100020000C9434000C9434000C9434000C94340080
:100030000C9434000C9434000C9434000C94340070
:100040000C9434000C9434000C9434000C94340060
:100050000C94340011241FBECFE5D8E0DEBFCDBF25
:100060000E9436000C9446000C9400008AB38E7FE8
:100070008ABB81B3816081BBC89B04C082B38160AD
:1000800082BBFACF82B38E7F82BBF6CFF894FFCFCC
:00000001FF
