S00B00006D63322E7372656317
S11300000C942A000C943F000C943F000C943F0085
S11300100C943F000C943F000C943F000C943F0060
S11300200C943F000C943F000C943F000C943F0050
S11300300C943F000C943F000C943F000C943F0040
S11300400C943F000C943F000C943F000C943F0030
S11300500C943F0011241FBECFE5D8E0DEBFCDBF16
S113006010E0A0E6B0E0E2E7F2E002C005900D92F5
S1130070A836B107D9F70E945C000C9437010C94A0
S11300800000FC0147B1908180E4989F9001112405
S1130090942F9F73292B27B997B1907E97B996B166
S11300A08181987F8770892B86B986B1877F86B9CD
S11300B086B1806886B90895CF93DF93CDB7DEB754
S11300C029970FB6F894DEBF0FBECDBF87E0E0E6F8
S11300D0F0E0DE01119601900D928A95E1F7CE01D0
S11300E001960E949D0087E0898781E08887CE0180
S11300F008960E9441008AB38E7F8ABB84B38160D4
S113010084BBC89B0DC085B3816085BB83E00E941E
S1130110110183E00E94110180E00E941101F1CFDE
S113012085B38E7F85BB83E00E94110183E00E942A
S1130130110181E00E941101E4CFFC0182E08BB93E
S11301408AB188698AB980B5806880BD818181302F
S113015021F480B5806280BD05C0811103C080B5E3
S1130160806380BD8281813019F480B5886080BD50
S11301708081853051F480B58D7F80BD80B58B7FC3
S113018080BD8AB18B7F8AB92FC0863051F480B587
S1130190826080BD80B58B7F80BD8AB18B7F8AB938
S11301A023C0873051F480B5846080BD80B58D7FD5
S11301B080BD8AB18B7F8AB917C0883051F480B56D
S11301C0826080BD80B5846080BD8AB18B7F8AB92E
S11301D00BC0893049F480B5826080BD80B58460ED
S11301E080BD8AB184608AB983819481A581B681F6
S11301F0880F991FAA1FBB1F880F991FAA1FBB1F17
S11302009C01AD01220F331F441F551F60E074E2AF
S113021084EF90E00E9415012150310930BD29B9C5
S113022008955D9BFECF8CB90895A1E21A2EAA1BF6
S1130230BB1BFD010DC0AA1FBB1FEE1FFF1FA21792
S1130240B307E407F50720F0A21BB30BE40BF50B8F
S1130250661F771F881F991F1A9469F76095709518
S1130260809590959B01AC01BD01CF010895F89450
S1050270FFCFBA
S10B02720801008025000000D2
S9030000FC
